{
  "_format": "hh-sol-artifact-1",
  "contractName": "Polycity",
  "sourceName": "contracts/Polycity.sol",
  "abi": [
    {
      "inputs": [],
      "stateMutability": "nonpayable",
      "type": "constructor"
    },
    {
      "anonymous": false,
      "inputs": [
        {
          "indexed": true,
          "internalType": "address",
          "name": "owner",
          "type": "address"
        },
        {
          "indexed": true,
          "internalType": "address",
          "name": "approved",
          "type": "address"
        },
        {
          "indexed": true,
          "internalType": "uint256",
          "name": "tokenId",
          "type": "uint256"
        }
      ],
      "name": "Approval",
      "type": "event"
    },
    {
      "anonymous": false,
      "inputs": [
        {
          "indexed": true,
          "internalType": "address",
          "name": "owner",
          "type": "address"
        },
        {
          "indexed": true,
          "internalType": "address",
          "name": "operator",
          "type": "address"
        },
        {
          "indexed": false,
          "internalType": "bool",
          "name": "approved",
          "type": "bool"
        }
      ],
      "name": "ApprovalForAll",
      "type": "event"
    },
    {
      "anonymous": false,
      "inputs": [
        {
          "indexed": true,
          "internalType": "address",
          "name": "from",
          "type": "address"
        },
        {
          "indexed": true,
          "internalType": "address",
          "name": "to",
          "type": "address"
        },
        {
          "indexed": true,
          "internalType": "uint256",
          "name": "tokenId",
          "type": "uint256"
        }
      ],
      "name": "Transfer",
      "type": "event"
    },
    {
      "inputs": [
        {
          "internalType": "address",
          "name": "to",
          "type": "address"
        },
        {
          "internalType": "uint256",
          "name": "tokenId",
          "type": "uint256"
        }
      ],
      "name": "approve",
      "outputs": [],
      "stateMutability": "nonpayable",
      "type": "function"
    },
    {
      "inputs": [
        {
          "internalType": "address",
          "name": "owner",
          "type": "address"
        }
      ],
      "name": "balanceOf",
      "outputs": [
        {
          "internalType": "uint256",
          "name": "",
          "type": "uint256"
        }
      ],
      "stateMutability": "view",
      "type": "function"
    },
    {
      "inputs": [
        {
          "internalType": "uint256",
          "name": "tokenId",
          "type": "uint256"
        }
      ],
      "name": "getApproved",
      "outputs": [
        {
          "internalType": "address",
          "name": "",
          "type": "address"
        }
      ],
      "stateMutability": "view",
      "type": "function"
    },
    {
      "inputs": [
        {
          "internalType": "address",
          "name": "owner",
          "type": "address"
        },
        {
          "internalType": "address",
          "name": "operator",
          "type": "address"
        }
      ],
      "name": "isApprovedForAll",
      "outputs": [
        {
          "internalType": "bool",
          "name": "",
          "type": "bool"
        }
      ],
      "stateMutability": "view",
      "type": "function"
    },
    {
      "inputs": [],
      "name": "mint",
      "outputs": [
        {
          "internalType": "uint256",
          "name": "",
          "type": "uint256"
        }
      ],
      "stateMutability": "nonpayable",
      "type": "function"
    },
    {
      "inputs": [],
      "name": "name",
      "outputs": [
        {
          "internalType": "string",
          "name": "",
          "type": "string"
        }
      ],
      "stateMutability": "view",
      "type": "function"
    },
    {
      "inputs": [
        {
          "internalType": "uint256",
          "name": "tokenId",
          "type": "uint256"
        }
      ],
      "name": "ownerOf",
      "outputs": [
        {
          "internalType": "address",
          "name": "",
          "type": "address"
        }
      ],
      "stateMutability": "view",
      "type": "function"
    },
    {
      "inputs": [
        {
          "internalType": "address",
          "name": "from",
          "type": "address"
        },
        {
          "internalType": "address",
          "name": "to",
          "type": "address"
        },
        {
          "internalType": "uint256",
          "name": "tokenId",
          "type": "uint256"
        }
      ],
      "name": "safeTransferFrom",
      "outputs": [],
      "stateMutability": "nonpayable",
      "type": "function"
    },
    {
      "inputs": [
        {
          "internalType": "address",
          "name": "from",
          "type": "address"
        },
        {
          "internalType": "address",
          "name": "to",
          "type": "address"
        },
        {
          "internalType": "uint256",
          "name": "tokenId",
          "type": "uint256"
        },
        {
          "internalType": "bytes",
          "name": "_data",
          "type": "bytes"
        }
      ],
      "name": "safeTransferFrom",
      "outputs": [],
      "stateMutability": "nonpayable",
      "type": "function"
    },
    {
      "inputs": [
        {
          "internalType": "address",
          "name": "operator",
          "type": "address"
        },
        {
          "internalType": "bool",
          "name": "approved",
          "type": "bool"
        }
      ],
      "name": "setApprovalForAll",
      "outputs": [],
      "stateMutability": "nonpayable",
      "type": "function"
    },
    {
      "inputs": [
        {
          "internalType": "bytes4",
          "name": "interfaceId",
          "type": "bytes4"
        }
      ],
      "name": "supportsInterface",
      "outputs": [
        {
          "internalType": "bool",
          "name": "",
          "type": "bool"
        }
      ],
      "stateMutability": "view",
      "type": "function"
    },
    {
      "inputs": [],
      "name": "symbol",
      "outputs": [
        {
          "internalType": "string",
          "name": "",
          "type": "string"
        }
      ],
      "stateMutability": "view",
      "type": "function"
    },
    {
      "inputs": [
        {
          "internalType": "uint256",
          "name": "tokenId",
          "type": "uint256"
        }
      ],
      "name": "tokenURI",
      "outputs": [
        {
          "internalType": "string",
          "name": "",
          "type": "string"
        }
      ],
      "stateMutability": "view",
      "type": "function"
    },
    {
      "inputs": [],
      "name": "totalSupply",
      "outputs": [
        {
          "internalType": "uint256",
          "name": "",
          "type": "uint256"
        }
      ],
      "stateMutability": "view",
      "type": "function"
    },
    {
      "inputs": [
        {
          "internalType": "address",
          "name": "from",
          "type": "address"
        },
        {
          "internalType": "address",
          "name": "to",
          "type": "address"
        },
        {
          "internalType": "uint256",
          "name": "tokenId",
          "type": "uint256"
        }
      ],
      "name": "transferFrom",
      "outputs": [],
      "stateMutability": "nonpayable",
      "type": "function"
    }
  ],
  "bytecode": "0x60806040523480156200001157600080fd5b506040518060400160405280600881526020017f506f6c79636974790000000000000000000000000000000000000000000000008152506040518060400160405280600581526020017f504f4c5943000000000000000000000000000000000000000000000000000000815250816000908051906020019062000096929190620000b8565b508060019080519060200190620000af929190620000b8565b505050620001cd565b828054620000c69062000197565b90600052602060002090601f016020900481019282620000ea576000855562000136565b82601f106200010557805160ff191683800117855562000136565b8280016001018555821562000136579182015b828111156200013557825182559160200191906001019062000118565b5b50905062000145919062000149565b5090565b5b80821115620001645760008160009055506001016200014a565b5090565b7f4e487b7100000000000000000000000000000000000000000000000000000000600052602260045260246000fd5b60006002820490506001821680620001b057607f821691505b60208210811415620001c757620001c662000168565b5b50919050565b6127a080620001dd6000396000f3fe608060405234801561001057600080fd5b50600436106100f55760003560e01c806342842e0e11610097578063a22cb46511610066578063a22cb46514610286578063b88d4fde146102a2578063c87b56dd146102be578063e985e9c5146102ee576100f5565b806342842e0e146101ec5780636352211e1461020857806370a082311461023857806395d89b4114610268576100f5565b8063095ea7b3116100d3578063095ea7b3146101785780631249c58b1461019457806318160ddd146101b257806323b872dd146101d0576100f5565b806301ffc9a7146100fa57806306fdde031461012a578063081812fc14610148575b600080fd5b610114600480360381019061010f9190611723565b61031e565b604051610121919061176b565b60405180910390f35b610132610400565b60405161013f919061181f565b60405180910390f35b610162600480360381019061015d9190611877565b610492565b60405161016f91906118e5565b60405180910390f35b610192600480360381019061018d919061192c565b610517565b005b61019c61062f565b6040516101a9919061197b565b60405180910390f35b6101ba61065a565b6040516101c7919061197b565b60405180910390f35b6101ea60048036038101906101e59190611996565b61066b565b005b61020660048036038101906102019190611996565b6106cb565b005b610222600480360381019061021d9190611877565b6106eb565b60405161022f91906118e5565b60405180910390f35b610252600480360381019061024d91906119e9565b61079d565b60405161025f919061197b565b60405180910390f35b610270610855565b60405161027d919061181f565b60405180910390f35b6102a0600480360381019061029b9190611a42565b6108e7565b005b6102bc60048036038101906102b79190611bb7565b6108fd565b005b6102d860048036038101906102d39190611877565b61095f565b6040516102e5919061181f565b60405180910390f35b61030860048036038101906103039190611c3a565b610a06565b604051610315919061176b565b60405180910390f35b60007f80ac58cd000000000000000000000000000000000000000000000000000000007bffffffffffffffffffffffffffffffffffffffffffffffffffffffff1916827bffffffffffffffffffffffffffffffffffffffffffffffffffffffff191614806103e957507f5b5e139f000000000000000000000000000000000000000000000000000000007bffffffffffffffffffffffffffffffffffffffffffffffffffffffff1916827bffffffffffffffffffffffffffffffffffffffffffffffffffffffff1916145b806103f957506103f882610a9a565b5b9050919050565b60606000805461040f90611ca9565b80601f016020809104026020016040519081016040528092919081815260200182805461043b90611ca9565b80156104885780601f1061045d57610100808354040283529160200191610488565b820191906000526020600020905b81548152906001019060200180831161046b57829003601f168201915b5050505050905090565b600061049d82610b04565b6104dc576040517f08c379a00000000000000000000000000000000000000000000000000000000081526004016104d390611d4d565b60405180910390fd5b6004600083815260200190815260200160002060009054906101000a900473ffffffffffffffffffffffffffffffffffffffff169050919050565b6000610522826106eb565b90508073ffffffffffffffffffffffffffffffffffffffff168373ffffffffffffffffffffffffffffffffffffffff161415610593576040517f08c379a000000000000000000000000000000000000000000000000000000000815260040161058a90611ddf565b60405180910390fd5b8073ffffffffffffffffffffffffffffffffffffffff166105b2610b70565b73ffffffffffffffffffffffffffffffffffffffff1614806105e157506105e0816105db610b70565b610a06565b5b610620576040517f08c379a000000000000000000000000000000000000000000000000000000000815260040161061790611e71565b60405180910390fd5b61062a8383610b78565b505050565b600061063b6006610c31565b60006106476006610c47565b90506106533382610c55565b8091505090565b60006106666006610c47565b905090565b61067c610676610b70565b82610c73565b6106bb576040517f08c379a00000000000000000000000000000000000000000000000000000000081526004016106b290611f03565b60405180910390fd5b6106c6838383610d51565b505050565b6106e6838383604051806020016040528060008152506108fd565b505050565b6000806002600084815260200190815260200160002060009054906101000a900473ffffffffffffffffffffffffffffffffffffffff169050600073ffffffffffffffffffffffffffffffffffffffff168173ffffffffffffffffffffffffffffffffffffffff161415610794576040517f08c379a000000000000000000000000000000000000000000000000000000000815260040161078b90611f95565b60405180910390fd5b80915050919050565b60008073ffffffffffffffffffffffffffffffffffffffff168273ffffffffffffffffffffffffffffffffffffffff16141561080e576040517f08c379a000000000000000000000000000000000000000000000000000000000815260040161080590612027565b60405180910390fd5b600360008373ffffffffffffffffffffffffffffffffffffffff1673ffffffffffffffffffffffffffffffffffffffff168152602001908152602001600020549050919050565b60606001805461086490611ca9565b80601f016020809104026020016040519081016040528092919081815260200182805461089090611ca9565b80156108dd5780601f106108b2576101008083540402835291602001916108dd565b820191906000526020600020905b8154815290600101906020018083116108c057829003601f168201915b5050505050905090565b6108f96108f2610b70565b8383610fad565b5050565b61090e610908610b70565b83610c73565b61094d576040517f08c379a000000000000000000000000000000000000000000000000000000000815260040161094490611f03565b60405180910390fd5b6109598484848461111a565b50505050565b606061096a82610b04565b6109a9576040517f08c379a00000000000000000000000000000000000000000000000000000000081526004016109a0906120b9565b60405180910390fd5b60006109b3611176565b905060008151116109d357604051806020016040528060008152506109fe565b806109dd8461118d565b6040516020016109ee929190612115565b6040516020818303038152906040525b915050919050565b6000600560008473ffffffffffffffffffffffffffffffffffffffff1673ffffffffffffffffffffffffffffffffffffffff16815260200190815260200160002060008373ffffffffffffffffffffffffffffffffffffffff1673ffffffffffffffffffffffffffffffffffffffff16815260200190815260200160002060009054906101000a900460ff16905092915050565b60007f01ffc9a7000000000000000000000000000000000000000000000000000000007bffffffffffffffffffffffffffffffffffffffffffffffffffffffff1916827bffffffffffffffffffffffffffffffffffffffffffffffffffffffff1916149050919050565b60008073ffffffffffffffffffffffffffffffffffffffff166002600084815260200190815260200160002060009054906101000a900473ffffffffffffffffffffffffffffffffffffffff1673ffffffffffffffffffffffffffffffffffffffff1614159050919050565b600033905090565b816004600083815260200190815260200160002060006101000a81548173ffffffffffffffffffffffffffffffffffffffff021916908373ffffffffffffffffffffffffffffffffffffffff160217905550808273ffffffffffffffffffffffffffffffffffffffff16610beb836106eb565b73ffffffffffffffffffffffffffffffffffffffff167f8c5be1e5ebec7d5bd14f71427d1e84f3dd0314c0f7b2291e5b200ac8c7c3b92560405160405180910390a45050565b6001816000016000828254019250508190555050565b600081600001549050919050565b610c6f8282604051806020016040528060008152506112ee565b5050565b6000610c7e82610b04565b610cbd576040517f08c379a0000000000000000000000000000000000000000000000000000000008152600401610cb4906121ab565b60405180910390fd5b6000610cc8836106eb565b90508073ffffffffffffffffffffffffffffffffffffffff168473ffffffffffffffffffffffffffffffffffffffff161480610d3757508373ffffffffffffffffffffffffffffffffffffffff16610d1f84610492565b73ffffffffffffffffffffffffffffffffffffffff16145b80610d485750610d478185610a06565b5b91505092915050565b8273ffffffffffffffffffffffffffffffffffffffff16610d71826106eb565b73ffffffffffffffffffffffffffffffffffffffff1614610dc7576040517f08c379a0000000000000000000000000000000000000000000000000000000008152600401610dbe9061223d565b60405180910390fd5b600073ffffffffffffffffffffffffffffffffffffffff168273ffffffffffffffffffffffffffffffffffffffff161415610e37576040517f08c379a0000000000000000000000000000000000000000000000000000000008152600401610e2e906122cf565b60405180910390fd5b610e42838383611349565b610e4d600082610b78565b6001600360008573ffffffffffffffffffffffffffffffffffffffff1673ffffffffffffffffffffffffffffffffffffffff1681526020019081526020016000206000828254610e9d919061231e565b925050819055506001600360008473ffffffffffffffffffffffffffffffffffffffff1673ffffffffffffffffffffffffffffffffffffffff1681526020019081526020016000206000828254610ef49190612352565b92505081905550816002600083815260200190815260200160002060006101000a81548173ffffffffffffffffffffffffffffffffffffffff021916908373ffffffffffffffffffffffffffffffffffffffff160217905550808273ffffffffffffffffffffffffffffffffffffffff168473ffffffffffffffffffffffffffffffffffffffff167fddf252ad1be2c89b69c2b068fc378daa952ba7f163c4a11628f55a4df523b3ef60405160405180910390a4505050565b8173ffffffffffffffffffffffffffffffffffffffff168373ffffffffffffffffffffffffffffffffffffffff16141561101c576040517f08c379a0000000000000000000000000000000000000000000000000000000008152600401611013906123f4565b60405180910390fd5b80600560008573ffffffffffffffffffffffffffffffffffffffff1673ffffffffffffffffffffffffffffffffffffffff16815260200190815260200160002060008473ffffffffffffffffffffffffffffffffffffffff1673ffffffffffffffffffffffffffffffffffffffff16815260200190815260200160002060006101000a81548160ff0219169083151502179055508173ffffffffffffffffffffffffffffffffffffffff168373ffffffffffffffffffffffffffffffffffffffff167f17307eab39ab6107e8899845ad3d59bd9653f200f220920489ca2b5937696c318360405161110d919061176b565b60405180910390a3505050565b611125848484610d51565b6111318484848461134e565b611170576040517f08c379a000000000000000000000000000000000000000000000000000000000815260040161116790612486565b60405180910390fd5b50505050565b606060405180602001604052806000815250905090565b606060008214156111d5576040518060400160405280600181526020017f300000000000000000000000000000000000000000000000000000000000000081525090506112e9565b600082905060005b600082146112075780806111f0906124a6565b915050600a82611200919061251e565b91506111dd565b60008167ffffffffffffffff81111561122357611222611a8c565b5b6040519080825280601f01601f1916602001820160405280156112555781602001600182028036833780820191505090505b5090505b600085146112e25760018261126e919061231e565b9150600a8561127d919061254f565b60306112899190612352565b60f81b81838151811061129f5761129e612580565b5b60200101907effffffffffffffffffffffffffffffffffffffffffffffffffffffffffffff1916908160001a905350600a856112db919061251e565b9450611259565b8093505050505b919050565b6112f883836114d6565b611305600084848461134e565b611344576040517f08c379a000000000000000000000000000000000000000000000000000000000815260040161133b90612486565b60405180910390fd5b505050565b505050565b600061136f8473ffffffffffffffffffffffffffffffffffffffff166116a4565b156114c9578373ffffffffffffffffffffffffffffffffffffffff1663150b7a02611398610b70565b8786866040518563ffffffff1660e01b81526004016113ba9493929190612604565b6020604051808303816000875af19250505080156113f657506040513d601f19601f820116820180604052508101906113f39190612665565b60015b611479573d8060008114611426576040519150601f19603f3d011682016040523d82523d6000602084013e61142b565b606091505b50600081511415611471576040517f08c379a000000000000000000000000000000000000000000000000000000000815260040161146890612486565b60405180910390fd5b805181602001fd5b63150b7a0260e01b7bffffffffffffffffffffffffffffffffffffffffffffffffffffffff1916817bffffffffffffffffffffffffffffffffffffffffffffffffffffffff1916149150506114ce565b600190505b949350505050565b600073ffffffffffffffffffffffffffffffffffffffff168273ffffffffffffffffffffffffffffffffffffffff161415611546576040517f08c379a000000000000000000000000000000000000000000000000000000000815260040161153d906126de565b60405180910390fd5b61154f81610b04565b1561158f576040517f08c379a00000000000000000000000000000000000000000000000000000000081526004016115869061274a565b60405180910390fd5b61159b60008383611349565b6001600360008473ffffffffffffffffffffffffffffffffffffffff1673ffffffffffffffffffffffffffffffffffffffff16815260200190815260200160002060008282546115eb9190612352565b92505081905550816002600083815260200190815260200160002060006101000a81548173ffffffffffffffffffffffffffffffffffffffff021916908373ffffffffffffffffffffffffffffffffffffffff160217905550808273ffffffffffffffffffffffffffffffffffffffff16600073ffffffffffffffffffffffffffffffffffffffff167fddf252ad1be2c89b69c2b068fc378daa952ba7f163c4a11628f55a4df523b3ef60405160405180910390a45050565b600080823b905060008111915050919050565b6000604051905090565b600080fd5b600080fd5b60007fffffffff0000000000000000000000000000000000000000000000000000000082169050919050565b611700816116cb565b811461170b57600080fd5b50565b60008135905061171d816116f7565b92915050565b600060208284031215611739576117386116c1565b5b60006117478482850161170e565b91505092915050565b60008115159050919050565b61176581611750565b82525050565b6000602082019050611780600083018461175c565b92915050565b600081519050919050565b600082825260208201905092915050565b60005b838110156117c05780820151818401526020810190506117a5565b838111156117cf576000848401525b50505050565b6000601f19601f8301169050919050565b60006117f182611786565b6117fb8185611791565b935061180b8185602086016117a2565b611814816117d5565b840191505092915050565b6000602082019050818103600083015261183981846117e6565b905092915050565b6000819050919050565b61185481611841565b811461185f57600080fd5b50565b6000813590506118718161184b565b92915050565b60006020828403121561188d5761188c6116c1565b5b600061189b84828501611862565b91505092915050565b600073ffffffffffffffffffffffffffffffffffffffff82169050919050565b60006118cf826118a4565b9050919050565b6118df816118c4565b82525050565b60006020820190506118fa60008301846118d6565b92915050565b611909816118c4565b811461191457600080fd5b50565b60008135905061192681611900565b92915050565b60008060408385031215611943576119426116c1565b5b600061195185828601611917565b925050602061196285828601611862565b9150509250929050565b61197581611841565b82525050565b6000602082019050611990600083018461196c565b92915050565b6000806000606084860312156119af576119ae6116c1565b5b60006119bd86828701611917565b93505060206119ce86828701611917565b92505060406119df86828701611862565b9150509250925092565b6000602082840312156119ff576119fe6116c1565b5b6000611a0d84828501611917565b91505092915050565b611a1f81611750565b8114611a2a57600080fd5b50565b600081359050611a3c81611a16565b92915050565b60008060408385031215611a5957611a586116c1565b5b6000611a6785828601611917565b9250506020611a7885828601611a2d565b9150509250929050565b600080fd5b600080fd5b7f4e487b7100000000000000000000000000000000000000000000000000000000600052604160045260246000fd5b611ac4826117d5565b810181811067ffffffffffffffff82111715611ae357611ae2611a8c565b5b80604052505050565b6000611af66116b7565b9050611b028282611abb565b919050565b600067ffffffffffffffff821115611b2257611b21611a8c565b5b611b2b826117d5565b9050602081019050919050565b82818337600083830152505050565b6000611b5a611b5584611b07565b611aec565b905082815260208101848484011115611b7657611b75611a87565b5b611b81848285611b38565b509392505050565b600082601f830112611b9e57611b9d611a82565b5b8135611bae848260208601611b47565b91505092915050565b60008060008060808587031215611bd157611bd06116c1565b5b6000611bdf87828801611917565b9450506020611bf087828801611917565b9350506040611c0187828801611862565b925050606085013567ffffffffffffffff811115611c2257611c216116c6565b5b611c2e87828801611b89565b91505092959194509250565b60008060408385031215611c5157611c506116c1565b5b6000611c5f85828601611917565b9250506020611c7085828601611917565b9150509250929050565b7f4e487b7100000000000000000000000000000000000000000000000000000000600052602260045260246000fd5b60006002820490506001821680611cc157607f821691505b60208210811415611cd557611cd4611c7a565b5b50919050565b7f4552433732313a20617070726f76656420717565727920666f72206e6f6e657860008201527f697374656e7420746f6b656e0000000000000000000000000000000000000000602082015250565b6000611d37602c83611791565b9150611d4282611cdb565b604082019050919050565b60006020820190508181036000830152611d6681611d2a565b9050919050565b7f4552433732313a20617070726f76616c20746f2063757272656e74206f776e6560008201527f7200000000000000000000000000000000000000000000000000000000000000602082015250565b6000611dc9602183611791565b9150611dd482611d6d565b604082019050919050565b60006020820190508181036000830152611df881611dbc565b9050919050565b7f4552433732313a20617070726f76652063616c6c6572206973206e6f74206f7760008201527f6e6572206e6f7220617070726f76656420666f7220616c6c0000000000000000602082015250565b6000611e5b603883611791565b9150611e6682611dff565b604082019050919050565b60006020820190508181036000830152611e8a81611e4e565b9050919050565b7f4552433732313a207472616e736665722063616c6c6572206973206e6f74206f60008201527f776e6572206e6f7220617070726f766564000000000000000000000000000000602082015250565b6000611eed603183611791565b9150611ef882611e91565b604082019050919050565b60006020820190508181036000830152611f1c81611ee0565b9050919050565b7f4552433732313a206f776e657220717565727920666f72206e6f6e657869737460008201527f656e7420746f6b656e0000000000000000000000000000000000000000000000602082015250565b6000611f7f602983611791565b9150611f8a82611f23565b604082019050919050565b60006020820190508181036000830152611fae81611f72565b9050919050565b7f4552433732313a2062616c616e636520717565727920666f7220746865207a6560008201527f726f206164647265737300000000000000000000000000000000000000000000602082015250565b6000612011602a83611791565b915061201c82611fb5565b604082019050919050565b6000602082019050818103600083015261204081612004565b9050919050565b7f4552433732314d657461646174613a2055524920717565727920666f72206e6f60008201527f6e6578697374656e7420746f6b656e0000000000000000000000000000000000602082015250565b60006120a3602f83611791565b91506120ae82612047565b604082019050919050565b600060208201905081810360008301526120d281612096565b9050919050565b600081905092915050565b60006120ef82611786565b6120f981856120d9565b93506121098185602086016117a2565b80840191505092915050565b600061212182856120e4565b915061212d82846120e4565b91508190509392505050565b7f4552433732313a206f70657261746f7220717565727920666f72206e6f6e657860008201527f697374656e7420746f6b656e0000000000000000000000000000000000000000602082015250565b6000612195602c83611791565b91506121a082612139565b604082019050919050565b600060208201905081810360008301526121c481612188565b9050919050565b7f4552433732313a207472616e73666572206f6620746f6b656e2074686174206960008201527f73206e6f74206f776e0000000000000000000000000000000000000000000000602082015250565b6000612227602983611791565b9150612232826121cb565b604082019050919050565b600060208201905081810360008301526122568161221a565b9050919050565b7f4552433732313a207472616e7366657220746f20746865207a65726f2061646460008201527f7265737300000000000000000000000000000000000000000000000000000000602082015250565b60006122b9602483611791565b91506122c48261225d565b604082019050919050565b600060208201905081810360008301526122e8816122ac565b9050919050565b7f4e487b7100000000000000000000000000000000000000000000000000000000600052601160045260246000fd5b600061232982611841565b915061233483611841565b925082821015612347576123466122ef565b5b828203905092915050565b600061235d82611841565b915061236883611841565b9250827fffffffffffffffffffffffffffffffffffffffffffffffffffffffffffffffff0382111561239d5761239c6122ef565b5b828201905092915050565b7f4552433732313a20617070726f766520746f2063616c6c657200000000000000600082015250565b60006123de601983611791565b91506123e9826123a8565b602082019050919050565b6000602082019050818103600083015261240d816123d1565b9050919050565b7f4552433732313a207472616e7366657220746f206e6f6e20455243373231526560008201527f63656976657220696d706c656d656e7465720000000000000000000000000000602082015250565b6000612470603283611791565b915061247b82612414565b604082019050919050565b6000602082019050818103600083015261249f81612463565b9050919050565b60006124b182611841565b91507fffffffffffffffffffffffffffffffffffffffffffffffffffffffffffffffff8214156124e4576124e36122ef565b5b600182019050919050565b7f4e487b7100000000000000000000000000000000000000000000000000000000600052601260045260246000fd5b600061252982611841565b915061253483611841565b925082612544576125436124ef565b5b828204905092915050565b600061255a82611841565b915061256583611841565b925082612575576125746124ef565b5b828206905092915050565b7f4e487b7100000000000000000000000000000000000000000000000000000000600052603260045260246000fd5b600081519050919050565b600082825260208201905092915050565b60006125d6826125af565b6125e081856125ba565b93506125f08185602086016117a2565b6125f9816117d5565b840191505092915050565b600060808201905061261960008301876118d6565b61262660208301866118d6565b612633604083018561196c565b818103606083015261264581846125cb565b905095945050505050565b60008151905061265f816116f7565b92915050565b60006020828403121561267b5761267a6116c1565b5b600061268984828501612650565b91505092915050565b7f4552433732313a206d696e7420746f20746865207a65726f2061646472657373600082015250565b60006126c8602083611791565b91506126d382612692565b602082019050919050565b600060208201905081810360008301526126f7816126bb565b9050919050565b7f4552433732313a20746f6b656e20616c7265616479206d696e74656400000000600082015250565b6000612734601c83611791565b915061273f826126fe565b602082019050919050565b6000602082019050818103600083015261276381612727565b905091905056fea2646970667358221220a64d6fed9fb7c47c46bf0ed4ee73fbd343e6f2cd917c14a8d959c389e83d7a7064736f6c634300080a0033",
  "linkReferences": {},
  "deployedLinkReferences": {}
}