{
  "_format": "hh-sol-artifact-1",
  "contractName": "Polycity",
  "sourceName": "contracts/Polycity.sol",
  "abi": [
    {
      "inputs": [],
      "stateMutability": "nonpayable",
      "type": "constructor"
    },
    {
      "anonymous": false,
      "inputs": [
        {
          "indexed": true,
          "internalType": "address",
          "name": "owner",
          "type": "address"
        },
        {
          "indexed": true,
          "internalType": "address",
          "name": "approved",
          "type": "address"
        },
        {
          "indexed": true,
          "internalType": "uint256",
          "name": "tokenId",
          "type": "uint256"
        }
      ],
      "name": "Approval",
      "type": "event"
    },
    {
      "anonymous": false,
      "inputs": [
        {
          "indexed": true,
          "internalType": "address",
          "name": "owner",
          "type": "address"
        },
        {
          "indexed": true,
          "internalType": "address",
          "name": "operator",
          "type": "address"
        },
        {
          "indexed": false,
          "internalType": "bool",
          "name": "approved",
          "type": "bool"
        }
      ],
      "name": "ApprovalForAll",
      "type": "event"
    },
    {
      "anonymous": false,
      "inputs": [
        {
          "indexed": true,
          "internalType": "address",
          "name": "from",
          "type": "address"
        },
        {
          "indexed": true,
          "internalType": "address",
          "name": "to",
          "type": "address"
        },
        {
          "indexed": true,
          "internalType": "uint256",
          "name": "tokenId",
          "type": "uint256"
        }
      ],
      "name": "Transfer",
      "type": "event"
    },
    {
      "inputs": [
        {
          "internalType": "address",
          "name": "to",
          "type": "address"
        },
        {
          "internalType": "uint256",
          "name": "tokenId",
          "type": "uint256"
        }
      ],
      "name": "approve",
      "outputs": [],
      "stateMutability": "nonpayable",
      "type": "function"
    },
    {
      "inputs": [
        {
          "internalType": "address",
          "name": "owner",
          "type": "address"
        }
      ],
      "name": "balanceOf",
      "outputs": [
        {
          "internalType": "uint256",
          "name": "",
          "type": "uint256"
        }
      ],
      "stateMutability": "view",
      "type": "function"
    },
    {
      "inputs": [
        {
          "internalType": "uint256",
          "name": "tokenId",
          "type": "uint256"
        }
      ],
      "name": "getApproved",
      "outputs": [
        {
          "internalType": "address",
          "name": "",
          "type": "address"
        }
      ],
      "stateMutability": "view",
      "type": "function"
    },
    {
      "inputs": [
        {
          "internalType": "address",
          "name": "owner",
          "type": "address"
        },
        {
          "internalType": "address",
          "name": "operator",
          "type": "address"
        }
      ],
      "name": "isApprovedForAll",
      "outputs": [
        {
          "internalType": "bool",
          "name": "",
          "type": "bool"
        }
      ],
      "stateMutability": "view",
      "type": "function"
    },
    {
      "inputs": [],
      "name": "mint",
      "outputs": [
        {
          "internalType": "uint256",
          "name": "",
          "type": "uint256"
        }
      ],
      "stateMutability": "nonpayable",
      "type": "function"
    },
    {
      "inputs": [],
      "name": "name",
      "outputs": [
        {
          "internalType": "string",
          "name": "",
          "type": "string"
        }
      ],
      "stateMutability": "view",
      "type": "function"
    },
    {
      "inputs": [
        {
          "internalType": "uint256",
          "name": "tokenId",
          "type": "uint256"
        }
      ],
      "name": "ownerOf",
      "outputs": [
        {
          "internalType": "address",
          "name": "",
          "type": "address"
        }
      ],
      "stateMutability": "view",
      "type": "function"
    },
    {
      "inputs": [
        {
          "internalType": "address",
          "name": "from",
          "type": "address"
        },
        {
          "internalType": "address",
          "name": "to",
          "type": "address"
        },
        {
          "internalType": "uint256",
          "name": "tokenId",
          "type": "uint256"
        }
      ],
      "name": "safeTransferFrom",
      "outputs": [],
      "stateMutability": "nonpayable",
      "type": "function"
    },
    {
      "inputs": [
        {
          "internalType": "address",
          "name": "from",
          "type": "address"
        },
        {
          "internalType": "address",
          "name": "to",
          "type": "address"
        },
        {
          "internalType": "uint256",
          "name": "tokenId",
          "type": "uint256"
        },
        {
          "internalType": "bytes",
          "name": "_data",
          "type": "bytes"
        }
      ],
      "name": "safeTransferFrom",
      "outputs": [],
      "stateMutability": "nonpayable",
      "type": "function"
    },
    {
      "inputs": [
        {
          "internalType": "address",
          "name": "operator",
          "type": "address"
        },
        {
          "internalType": "bool",
          "name": "approved",
          "type": "bool"
        }
      ],
      "name": "setApprovalForAll",
      "outputs": [],
      "stateMutability": "nonpayable",
      "type": "function"
    },
    {
      "inputs": [
        {
          "internalType": "bytes4",
          "name": "interfaceId",
          "type": "bytes4"
        }
      ],
      "name": "supportsInterface",
      "outputs": [
        {
          "internalType": "bool",
          "name": "",
          "type": "bool"
        }
      ],
      "stateMutability": "view",
      "type": "function"
    },
    {
      "inputs": [],
      "name": "symbol",
      "outputs": [
        {
          "internalType": "string",
          "name": "",
          "type": "string"
        }
      ],
      "stateMutability": "view",
      "type": "function"
    },
    {
      "inputs": [
        {
          "internalType": "uint256",
          "name": "tokenId",
          "type": "uint256"
        }
      ],
      "name": "tokenURI",
      "outputs": [
        {
          "internalType": "string",
          "name": "",
          "type": "string"
        }
      ],
      "stateMutability": "view",
      "type": "function"
    },
    {
      "inputs": [],
      "name": "totalSupply",
      "outputs": [
        {
          "internalType": "uint256",
          "name": "",
          "type": "uint256"
        }
      ],
      "stateMutability": "view",
      "type": "function"
    },
    {
      "inputs": [
        {
          "internalType": "address",
          "name": "from",
          "type": "address"
        },
        {
          "internalType": "address",
          "name": "to",
          "type": "address"
        },
        {
          "internalType": "uint256",
          "name": "tokenId",
          "type": "uint256"
        }
      ],
      "name": "transferFrom",
      "outputs": [],
      "stateMutability": "nonpayable",
      "type": "function"
    }
  ],
  "bytecode": "0x60806040523480156200001157600080fd5b506040518060400160405280600881526020017f506f6c79636974790000000000000000000000000000000000000000000000008152506040518060400160405280600581526020017f504f4c5943000000000000000000000000000000000000000000000000000000815250816000908051906020019062000096929190620000b8565b508060019080519060200190620000af929190620000b8565b505050620001cd565b828054620000c69062000197565b90600052602060002090601f016020900481019282620000ea576000855562000136565b82601f106200010557805160ff191683800117855562000136565b8280016001018555821562000136579182015b828111156200013557825182559160200191906001019062000118565b5b50905062000145919062000149565b5090565b5b80821115620001645760008160009055506001016200014a565b5090565b7f4e487b7100000000000000000000000000000000000000000000000000000000600052602260045260246000fd5b60006002820490506001821680620001b057607f821691505b60208210811415620001c757620001c662000168565b5b50919050565b61272780620001dd6000396000f3fe608060405234801561001057600080fd5b50600436106100f55760003560e01c806342842e0e11610097578063a22cb46511610066578063a22cb46514610286578063b88d4fde146102a2578063c87b56dd146102be578063e985e9c5146102ee576100f5565b806342842e0e146101ec5780636352211e1461020857806370a082311461023857806395d89b4114610268576100f5565b8063095ea7b3116100d3578063095ea7b3146101785780631249c58b1461019457806318160ddd146101b257806323b872dd146101d0576100f5565b806301ffc9a7146100fa57806306fdde031461012a578063081812fc14610148575b600080fd5b610114600480360381019061010f91906116aa565b61031e565b60405161012191906116f2565b60405180910390f35b610132610400565b60405161013f91906117a6565b60405180910390f35b610162600480360381019061015d91906117fe565b610492565b60405161016f919061186c565b60405180910390f35b610192600480360381019061018d91906118b3565b610517565b005b61019c61062f565b6040516101a99190611902565b60405180910390f35b6101ba61065a565b6040516101c79190611902565b60405180910390f35b6101ea60048036038101906101e5919061191d565b61066b565b005b6102066004803603810190610201919061191d565b6106cb565b005b610222600480360381019061021d91906117fe565b6106eb565b60405161022f919061186c565b60405180910390f35b610252600480360381019061024d9190611970565b61079d565b60405161025f9190611902565b60405180910390f35b610270610855565b60405161027d91906117a6565b60405180910390f35b6102a0600480360381019061029b91906119c9565b6108e7565b005b6102bc60048036038101906102b79190611b3e565b6108fd565b005b6102d860048036038101906102d391906117fe565b61095f565b6040516102e591906117a6565b60405180910390f35b61030860048036038101906103039190611bc1565b610a06565b60405161031591906116f2565b60405180910390f35b60007f80ac58cd000000000000000000000000000000000000000000000000000000007bffffffffffffffffffffffffffffffffffffffffffffffffffffffff1916827bffffffffffffffffffffffffffffffffffffffffffffffffffffffff191614806103e957507f5b5e139f000000000000000000000000000000000000000000000000000000007bffffffffffffffffffffffffffffffffffffffffffffffffffffffff1916827bffffffffffffffffffffffffffffffffffffffffffffffffffffffff1916145b806103f957506103f882610a9a565b5b9050919050565b60606000805461040f90611c30565b80601f016020809104026020016040519081016040528092919081815260200182805461043b90611c30565b80156104885780601f1061045d57610100808354040283529160200191610488565b820191906000526020600020905b81548152906001019060200180831161046b57829003601f168201915b5050505050905090565b600061049d82610b04565b6104dc576040517f08c379a00000000000000000000000000000000000000000000000000000000081526004016104d390611cd4565b60405180910390fd5b6004600083815260200190815260200160002060009054906101000a900473ffffffffffffffffffffffffffffffffffffffff169050919050565b6000610522826106eb565b90508073ffffffffffffffffffffffffffffffffffffffff168373ffffffffffffffffffffffffffffffffffffffff161415610593576040517f08c379a000000000000000000000000000000000000000000000000000000000815260040161058a90611d66565b60405180910390fd5b8073ffffffffffffffffffffffffffffffffffffffff166105b2610b70565b73ffffffffffffffffffffffffffffffffffffffff1614806105e157506105e0816105db610b70565b610a06565b5b610620576040517f08c379a000000000000000000000000000000000000000000000000000000000815260040161061790611df8565b60405180910390fd5b61062a8383610b78565b505050565b600061063b6006610c31565b60006106476006610c47565b90506106533382610c55565b8091505090565b60006106666006610c47565b905090565b61067c610676610b70565b82610e23565b6106bb576040517f08c379a00000000000000000000000000000000000000000000000000000000081526004016106b290611e8a565b60405180910390fd5b6106c6838383610f01565b505050565b6106e6838383604051806020016040528060008152506108fd565b505050565b6000806002600084815260200190815260200160002060009054906101000a900473ffffffffffffffffffffffffffffffffffffffff169050600073ffffffffffffffffffffffffffffffffffffffff168173ffffffffffffffffffffffffffffffffffffffff161415610794576040517f08c379a000000000000000000000000000000000000000000000000000000000815260040161078b90611f1c565b60405180910390fd5b80915050919050565b60008073ffffffffffffffffffffffffffffffffffffffff168273ffffffffffffffffffffffffffffffffffffffff16141561080e576040517f08c379a000000000000000000000000000000000000000000000000000000000815260040161080590611fae565b60405180910390fd5b600360008373ffffffffffffffffffffffffffffffffffffffff1673ffffffffffffffffffffffffffffffffffffffff168152602001908152602001600020549050919050565b60606001805461086490611c30565b80601f016020809104026020016040519081016040528092919081815260200182805461089090611c30565b80156108dd5780601f106108b2576101008083540402835291602001916108dd565b820191906000526020600020905b8154815290600101906020018083116108c057829003601f168201915b5050505050905090565b6108f96108f2610b70565b838361115d565b5050565b61090e610908610b70565b83610e23565b61094d576040517f08c379a000000000000000000000000000000000000000000000000000000000815260040161094490611e8a565b60405180910390fd5b610959848484846112ca565b50505050565b606061096a82610b04565b6109a9576040517f08c379a00000000000000000000000000000000000000000000000000000000081526004016109a090612040565b60405180910390fd5b60006109b3611326565b905060008151116109d357604051806020016040528060008152506109fe565b806109dd8461133d565b6040516020016109ee92919061209c565b6040516020818303038152906040525b915050919050565b6000600560008473ffffffffffffffffffffffffffffffffffffffff1673ffffffffffffffffffffffffffffffffffffffff16815260200190815260200160002060008373ffffffffffffffffffffffffffffffffffffffff1673ffffffffffffffffffffffffffffffffffffffff16815260200190815260200160002060009054906101000a900460ff16905092915050565b60007f01ffc9a7000000000000000000000000000000000000000000000000000000007bffffffffffffffffffffffffffffffffffffffffffffffffffffffff1916827bffffffffffffffffffffffffffffffffffffffffffffffffffffffff1916149050919050565b60008073ffffffffffffffffffffffffffffffffffffffff166002600084815260200190815260200160002060009054906101000a900473ffffffffffffffffffffffffffffffffffffffff1673ffffffffffffffffffffffffffffffffffffffff1614159050919050565b600033905090565b816004600083815260200190815260200160002060006101000a81548173ffffffffffffffffffffffffffffffffffffffff021916908373ffffffffffffffffffffffffffffffffffffffff160217905550808273ffffffffffffffffffffffffffffffffffffffff16610beb836106eb565b73ffffffffffffffffffffffffffffffffffffffff167f8c5be1e5ebec7d5bd14f71427d1e84f3dd0314c0f7b2291e5b200ac8c7c3b92560405160405180910390a45050565b6001816000016000828254019250508190555050565b600081600001549050919050565b600073ffffffffffffffffffffffffffffffffffffffff168273ffffffffffffffffffffffffffffffffffffffff161415610cc5576040517f08c379a0000000000000000000000000000000000000000000000000000000008152600401610cbc9061210c565b60405180910390fd5b610cce81610b04565b15610d0e576040517f08c379a0000000000000000000000000000000000000000000000000000000008152600401610d0590612178565b60405180910390fd5b610d1a6000838361149e565b6001600360008473ffffffffffffffffffffffffffffffffffffffff1673ffffffffffffffffffffffffffffffffffffffff1681526020019081526020016000206000828254610d6a91906121c7565b92505081905550816002600083815260200190815260200160002060006101000a81548173ffffffffffffffffffffffffffffffffffffffff021916908373ffffffffffffffffffffffffffffffffffffffff160217905550808273ffffffffffffffffffffffffffffffffffffffff16600073ffffffffffffffffffffffffffffffffffffffff167fddf252ad1be2c89b69c2b068fc378daa952ba7f163c4a11628f55a4df523b3ef60405160405180910390a45050565b6000610e2e82610b04565b610e6d576040517f08c379a0000000000000000000000000000000000000000000000000000000008152600401610e649061228f565b60405180910390fd5b6000610e78836106eb565b90508073ffffffffffffffffffffffffffffffffffffffff168473ffffffffffffffffffffffffffffffffffffffff161480610ee757508373ffffffffffffffffffffffffffffffffffffffff16610ecf84610492565b73ffffffffffffffffffffffffffffffffffffffff16145b80610ef85750610ef78185610a06565b5b91505092915050565b8273ffffffffffffffffffffffffffffffffffffffff16610f21826106eb565b73ffffffffffffffffffffffffffffffffffffffff1614610f77576040517f08c379a0000000000000000000000000000000000000000000000000000000008152600401610f6e90612321565b60405180910390fd5b600073ffffffffffffffffffffffffffffffffffffffff168273ffffffffffffffffffffffffffffffffffffffff161415610fe7576040517f08c379a0000000000000000000000000000000000000000000000000000000008152600401610fde906123b3565b60405180910390fd5b610ff283838361149e565b610ffd600082610b78565b6001600360008573ffffffffffffffffffffffffffffffffffffffff1673ffffffffffffffffffffffffffffffffffffffff168152602001908152602001600020600082825461104d91906123d3565b925050819055506001600360008473ffffffffffffffffffffffffffffffffffffffff1673ffffffffffffffffffffffffffffffffffffffff16815260200190815260200160002060008282546110a491906121c7565b92505081905550816002600083815260200190815260200160002060006101000a81548173ffffffffffffffffffffffffffffffffffffffff021916908373ffffffffffffffffffffffffffffffffffffffff160217905550808273ffffffffffffffffffffffffffffffffffffffff168473ffffffffffffffffffffffffffffffffffffffff167fddf252ad1be2c89b69c2b068fc378daa952ba7f163c4a11628f55a4df523b3ef60405160405180910390a4505050565b8173ffffffffffffffffffffffffffffffffffffffff168373ffffffffffffffffffffffffffffffffffffffff1614156111cc576040517f08c379a00000000000000000000000000000000000000000000000000000000081526004016111c390612453565b60405180910390fd5b80600560008573ffffffffffffffffffffffffffffffffffffffff1673ffffffffffffffffffffffffffffffffffffffff16815260200190815260200160002060008473ffffffffffffffffffffffffffffffffffffffff1673ffffffffffffffffffffffffffffffffffffffff16815260200190815260200160002060006101000a81548160ff0219169083151502179055508173ffffffffffffffffffffffffffffffffffffffff168373ffffffffffffffffffffffffffffffffffffffff167f17307eab39ab6107e8899845ad3d59bd9653f200f220920489ca2b5937696c31836040516112bd91906116f2565b60405180910390a3505050565b6112d5848484610f01565b6112e1848484846114a3565b611320576040517f08c379a0000000000000000000000000000000000000000000000000000000008152600401611317906124e5565b60405180910390fd5b50505050565b606060405180602001604052806000815250905090565b60606000821415611385576040518060400160405280600181526020017f30000000000000000000000000000000000000000000000000000000000000008152509050611499565b600082905060005b600082146113b75780806113a090612505565b915050600a826113b0919061257d565b915061138d565b60008167ffffffffffffffff8111156113d3576113d2611a13565b5b6040519080825280601f01601f1916602001820160405280156114055781602001600182028036833780820191505090505b5090505b600085146114925760018261141e91906123d3565b9150600a8561142d91906125ae565b603061143991906121c7565b60f81b81838151811061144f5761144e6125df565b5b60200101907effffffffffffffffffffffffffffffffffffffffffffffffffffffffffffff1916908160001a905350600a8561148b919061257d565b9450611409565b8093505050505b919050565b505050565b60006114c48473ffffffffffffffffffffffffffffffffffffffff1661162b565b1561161e578373ffffffffffffffffffffffffffffffffffffffff1663150b7a026114ed610b70565b8786866040518563ffffffff1660e01b815260040161150f9493929190612663565b6020604051808303816000875af192505050801561154b57506040513d601f19601f8201168201806040525081019061154891906126c4565b60015b6115ce573d806000811461157b576040519150601f19603f3d011682016040523d82523d6000602084013e611580565b606091505b506000815114156115c6576040517f08c379a00000000000000000000000000000000000000000000000000000000081526004016115bd906124e5565b60405180910390fd5b805181602001fd5b63150b7a0260e01b7bffffffffffffffffffffffffffffffffffffffffffffffffffffffff1916817bffffffffffffffffffffffffffffffffffffffffffffffffffffffff191614915050611623565b600190505b949350505050565b600080823b905060008111915050919050565b6000604051905090565b600080fd5b600080fd5b60007fffffffff0000000000000000000000000000000000000000000000000000000082169050919050565b61168781611652565b811461169257600080fd5b50565b6000813590506116a48161167e565b92915050565b6000602082840312156116c0576116bf611648565b5b60006116ce84828501611695565b91505092915050565b60008115159050919050565b6116ec816116d7565b82525050565b600060208201905061170760008301846116e3565b92915050565b600081519050919050565b600082825260208201905092915050565b60005b8381101561174757808201518184015260208101905061172c565b83811115611756576000848401525b50505050565b6000601f19601f8301169050919050565b60006117788261170d565b6117828185611718565b9350611792818560208601611729565b61179b8161175c565b840191505092915050565b600060208201905081810360008301526117c0818461176d565b905092915050565b6000819050919050565b6117db816117c8565b81146117e657600080fd5b50565b6000813590506117f8816117d2565b92915050565b60006020828403121561181457611813611648565b5b6000611822848285016117e9565b91505092915050565b600073ffffffffffffffffffffffffffffffffffffffff82169050919050565b60006118568261182b565b9050919050565b6118668161184b565b82525050565b6000602082019050611881600083018461185d565b92915050565b6118908161184b565b811461189b57600080fd5b50565b6000813590506118ad81611887565b92915050565b600080604083850312156118ca576118c9611648565b5b60006118d88582860161189e565b92505060206118e9858286016117e9565b9150509250929050565b6118fc816117c8565b82525050565b600060208201905061191760008301846118f3565b92915050565b60008060006060848603121561193657611935611648565b5b60006119448682870161189e565b93505060206119558682870161189e565b9250506040611966868287016117e9565b9150509250925092565b60006020828403121561198657611985611648565b5b60006119948482850161189e565b91505092915050565b6119a6816116d7565b81146119b157600080fd5b50565b6000813590506119c38161199d565b92915050565b600080604083850312156119e0576119df611648565b5b60006119ee8582860161189e565b92505060206119ff858286016119b4565b9150509250929050565b600080fd5b600080fd5b7f4e487b7100000000000000000000000000000000000000000000000000000000600052604160045260246000fd5b611a4b8261175c565b810181811067ffffffffffffffff82111715611a6a57611a69611a13565b5b80604052505050565b6000611a7d61163e565b9050611a898282611a42565b919050565b600067ffffffffffffffff821115611aa957611aa8611a13565b5b611ab28261175c565b9050602081019050919050565b82818337600083830152505050565b6000611ae1611adc84611a8e565b611a73565b905082815260208101848484011115611afd57611afc611a0e565b5b611b08848285611abf565b509392505050565b600082601f830112611b2557611b24611a09565b5b8135611b35848260208601611ace565b91505092915050565b60008060008060808587031215611b5857611b57611648565b5b6000611b668782880161189e565b9450506020611b778782880161189e565b9350506040611b88878288016117e9565b925050606085013567ffffffffffffffff811115611ba957611ba861164d565b5b611bb587828801611b10565b91505092959194509250565b60008060408385031215611bd857611bd7611648565b5b6000611be68582860161189e565b9250506020611bf78582860161189e565b9150509250929050565b7f4e487b7100000000000000000000000000000000000000000000000000000000600052602260045260246000fd5b60006002820490506001821680611c4857607f821691505b60208210811415611c5c57611c5b611c01565b5b50919050565b7f4552433732313a20617070726f76656420717565727920666f72206e6f6e657860008201527f697374656e7420746f6b656e0000000000000000000000000000000000000000602082015250565b6000611cbe602c83611718565b9150611cc982611c62565b604082019050919050565b60006020820190508181036000830152611ced81611cb1565b9050919050565b7f4552433732313a20617070726f76616c20746f2063757272656e74206f776e6560008201527f7200000000000000000000000000000000000000000000000000000000000000602082015250565b6000611d50602183611718565b9150611d5b82611cf4565b604082019050919050565b60006020820190508181036000830152611d7f81611d43565b9050919050565b7f4552433732313a20617070726f76652063616c6c6572206973206e6f74206f7760008201527f6e6572206e6f7220617070726f76656420666f7220616c6c0000000000000000602082015250565b6000611de2603883611718565b9150611ded82611d86565b604082019050919050565b60006020820190508181036000830152611e1181611dd5565b9050919050565b7f4552433732313a207472616e736665722063616c6c6572206973206e6f74206f60008201527f776e6572206e6f7220617070726f766564000000000000000000000000000000602082015250565b6000611e74603183611718565b9150611e7f82611e18565b604082019050919050565b60006020820190508181036000830152611ea381611e67565b9050919050565b7f4552433732313a206f776e657220717565727920666f72206e6f6e657869737460008201527f656e7420746f6b656e0000000000000000000000000000000000000000000000602082015250565b6000611f06602983611718565b9150611f1182611eaa565b604082019050919050565b60006020820190508181036000830152611f3581611ef9565b9050919050565b7f4552433732313a2062616c616e636520717565727920666f7220746865207a6560008201527f726f206164647265737300000000000000000000000000000000000000000000602082015250565b6000611f98602a83611718565b9150611fa382611f3c565b604082019050919050565b60006020820190508181036000830152611fc781611f8b565b9050919050565b7f4552433732314d657461646174613a2055524920717565727920666f72206e6f60008201527f6e6578697374656e7420746f6b656e0000000000000000000000000000000000602082015250565b600061202a602f83611718565b915061203582611fce565b604082019050919050565b600060208201905081810360008301526120598161201d565b9050919050565b600081905092915050565b60006120768261170d565b6120808185612060565b9350612090818560208601611729565b80840191505092915050565b60006120a8828561206b565b91506120b4828461206b565b91508190509392505050565b7f4552433732313a206d696e7420746f20746865207a65726f2061646472657373600082015250565b60006120f6602083611718565b9150612101826120c0565b602082019050919050565b60006020820190508181036000830152612125816120e9565b9050919050565b7f4552433732313a20746f6b656e20616c7265616479206d696e74656400000000600082015250565b6000612162601c83611718565b915061216d8261212c565b602082019050919050565b6000602082019050818103600083015261219181612155565b9050919050565b7f4e487b7100000000000000000000000000000000000000000000000000000000600052601160045260246000fd5b60006121d2826117c8565b91506121dd836117c8565b9250827fffffffffffffffffffffffffffffffffffffffffffffffffffffffffffffffff0382111561221257612211612198565b5b828201905092915050565b7f4552433732313a206f70657261746f7220717565727920666f72206e6f6e657860008201527f697374656e7420746f6b656e0000000000000000000000000000000000000000602082015250565b6000612279602c83611718565b91506122848261221d565b604082019050919050565b600060208201905081810360008301526122a88161226c565b9050919050565b7f4552433732313a207472616e73666572206f6620746f6b656e2074686174206960008201527f73206e6f74206f776e0000000000000000000000000000000000000000000000602082015250565b600061230b602983611718565b9150612316826122af565b604082019050919050565b6000602082019050818103600083015261233a816122fe565b9050919050565b7f4552433732313a207472616e7366657220746f20746865207a65726f2061646460008201527f7265737300000000000000000000000000000000000000000000000000000000602082015250565b600061239d602483611718565b91506123a882612341565b604082019050919050565b600060208201905081810360008301526123cc81612390565b9050919050565b60006123de826117c8565b91506123e9836117c8565b9250828210156123fc576123fb612198565b5b828203905092915050565b7f4552433732313a20617070726f766520746f2063616c6c657200000000000000600082015250565b600061243d601983611718565b915061244882612407565b602082019050919050565b6000602082019050818103600083015261246c81612430565b9050919050565b7f4552433732313a207472616e7366657220746f206e6f6e20455243373231526560008201527f63656976657220696d706c656d656e7465720000000000000000000000000000602082015250565b60006124cf603283611718565b91506124da82612473565b604082019050919050565b600060208201905081810360008301526124fe816124c2565b9050919050565b6000612510826117c8565b91507fffffffffffffffffffffffffffffffffffffffffffffffffffffffffffffffff82141561254357612542612198565b5b600182019050919050565b7f4e487b7100000000000000000000000000000000000000000000000000000000600052601260045260246000fd5b6000612588826117c8565b9150612593836117c8565b9250826125a3576125a261254e565b5b828204905092915050565b60006125b9826117c8565b91506125c4836117c8565b9250826125d4576125d361254e565b5b828206905092915050565b7f4e487b7100000000000000000000000000000000000000000000000000000000600052603260045260246000fd5b600081519050919050565b600082825260208201905092915050565b60006126358261260e565b61263f8185612619565b935061264f818560208601611729565b6126588161175c565b840191505092915050565b6000608082019050612678600083018761185d565b612685602083018661185d565b61269260408301856118f3565b81810360608301526126a4818461262a565b905095945050505050565b6000815190506126be8161167e565b92915050565b6000602082840312156126da576126d9611648565b5b60006126e8848285016126af565b9150509291505056fea2646970667358221220b0bbb47d5f23ba96962af5b034a7d5d9ff59debf376d0a652ae0c131c54b98f764736f6c634300080a0033",
  "linkReferences": {},
  "deployedLinkReferences": {}
}