{
  "_format": "hh-sol-artifact-1",
  "contractName": "Polycity",
  "sourceName": "contracts/Polycity.sol",
  "abi": [
    {
      "inputs": [],
      "stateMutability": "nonpayable",
      "type": "constructor"
    },
    {
      "anonymous": false,
      "inputs": [
        {
          "indexed": true,
          "internalType": "address",
          "name": "owner",
          "type": "address"
        },
        {
          "indexed": true,
          "internalType": "address",
          "name": "approved",
          "type": "address"
        },
        {
          "indexed": true,
          "internalType": "uint256",
          "name": "tokenId",
          "type": "uint256"
        }
      ],
      "name": "Approval",
      "type": "event"
    },
    {
      "anonymous": false,
      "inputs": [
        {
          "indexed": true,
          "internalType": "address",
          "name": "owner",
          "type": "address"
        },
        {
          "indexed": true,
          "internalType": "address",
          "name": "operator",
          "type": "address"
        },
        {
          "indexed": false,
          "internalType": "bool",
          "name": "approved",
          "type": "bool"
        }
      ],
      "name": "ApprovalForAll",
      "type": "event"
    },
    {
      "anonymous": false,
      "inputs": [
        {
          "indexed": true,
          "internalType": "address",
          "name": "from",
          "type": "address"
        },
        {
          "indexed": true,
          "internalType": "address",
          "name": "to",
          "type": "address"
        },
        {
          "indexed": true,
          "internalType": "uint256",
          "name": "tokenId",
          "type": "uint256"
        }
      ],
      "name": "Transfer",
      "type": "event"
    },
    {
      "inputs": [],
      "name": "LAND",
      "outputs": [
        {
          "internalType": "uint256",
          "name": "",
          "type": "uint256"
        }
      ],
      "stateMutability": "view",
      "type": "function"
    },
    {
      "inputs": [
        {
          "internalType": "address",
          "name": "to",
          "type": "address"
        },
        {
          "internalType": "uint256",
          "name": "tokenId",
          "type": "uint256"
        }
      ],
      "name": "approve",
      "outputs": [],
      "stateMutability": "nonpayable",
      "type": "function"
    },
    {
      "inputs": [
        {
          "internalType": "address",
          "name": "owner",
          "type": "address"
        }
      ],
      "name": "balanceOf",
      "outputs": [
        {
          "internalType": "uint256",
          "name": "",
          "type": "uint256"
        }
      ],
      "stateMutability": "view",
      "type": "function"
    },
    {
      "inputs": [
        {
          "internalType": "uint256",
          "name": "tokenId",
          "type": "uint256"
        }
      ],
      "name": "getApproved",
      "outputs": [
        {
          "internalType": "address",
          "name": "",
          "type": "address"
        }
      ],
      "stateMutability": "view",
      "type": "function"
    },
    {
      "inputs": [
        {
          "internalType": "address",
          "name": "owner",
          "type": "address"
        },
        {
          "internalType": "address",
          "name": "operator",
          "type": "address"
        }
      ],
      "name": "isApprovedForAll",
      "outputs": [
        {
          "internalType": "bool",
          "name": "",
          "type": "bool"
        }
      ],
      "stateMutability": "view",
      "type": "function"
    },
    {
      "inputs": [],
      "name": "landPrice",
      "outputs": [
        {
          "internalType": "uint256",
          "name": "",
          "type": "uint256"
        }
      ],
      "stateMutability": "view",
      "type": "function"
    },
    {
      "inputs": [],
      "name": "maxLand",
      "outputs": [
        {
          "internalType": "uint256",
          "name": "",
          "type": "uint256"
        }
      ],
      "stateMutability": "view",
      "type": "function"
    },
    {
      "inputs": [
        {
          "internalType": "uint256",
          "name": "landAmount",
          "type": "uint256"
        }
      ],
      "name": "mint",
      "outputs": [],
      "stateMutability": "nonpayable",
      "type": "function"
    },
    {
      "inputs": [],
      "name": "name",
      "outputs": [
        {
          "internalType": "string",
          "name": "",
          "type": "string"
        }
      ],
      "stateMutability": "view",
      "type": "function"
    },
    {
      "inputs": [],
      "name": "owner",
      "outputs": [
        {
          "internalType": "address",
          "name": "",
          "type": "address"
        }
      ],
      "stateMutability": "view",
      "type": "function"
    },
    {
      "inputs": [
        {
          "internalType": "uint256",
          "name": "tokenId",
          "type": "uint256"
        }
      ],
      "name": "ownerOf",
      "outputs": [
        {
          "internalType": "address",
          "name": "",
          "type": "address"
        }
      ],
      "stateMutability": "view",
      "type": "function"
    },
    {
      "inputs": [],
      "name": "reserveLand",
      "outputs": [],
      "stateMutability": "nonpayable",
      "type": "function"
    },
    {
      "inputs": [
        {
          "internalType": "address",
          "name": "from",
          "type": "address"
        },
        {
          "internalType": "address",
          "name": "to",
          "type": "address"
        },
        {
          "internalType": "uint256",
          "name": "tokenId",
          "type": "uint256"
        }
      ],
      "name": "safeTransferFrom",
      "outputs": [],
      "stateMutability": "nonpayable",
      "type": "function"
    },
    {
      "inputs": [
        {
          "internalType": "address",
          "name": "from",
          "type": "address"
        },
        {
          "internalType": "address",
          "name": "to",
          "type": "address"
        },
        {
          "internalType": "uint256",
          "name": "tokenId",
          "type": "uint256"
        },
        {
          "internalType": "bytes",
          "name": "_data",
          "type": "bytes"
        }
      ],
      "name": "safeTransferFrom",
      "outputs": [],
      "stateMutability": "nonpayable",
      "type": "function"
    },
    {
      "inputs": [],
      "name": "saleIsActive",
      "outputs": [
        {
          "internalType": "bool",
          "name": "",
          "type": "bool"
        }
      ],
      "stateMutability": "view",
      "type": "function"
    },
    {
      "inputs": [
        {
          "internalType": "address",
          "name": "operator",
          "type": "address"
        },
        {
          "internalType": "bool",
          "name": "approved",
          "type": "bool"
        }
      ],
      "name": "setApprovalForAll",
      "outputs": [],
      "stateMutability": "nonpayable",
      "type": "function"
    },
    {
      "inputs": [
        {
          "internalType": "bytes4",
          "name": "interfaceId",
          "type": "bytes4"
        }
      ],
      "name": "supportsInterface",
      "outputs": [
        {
          "internalType": "bool",
          "name": "",
          "type": "bool"
        }
      ],
      "stateMutability": "view",
      "type": "function"
    },
    {
      "inputs": [],
      "name": "symbol",
      "outputs": [
        {
          "internalType": "string",
          "name": "",
          "type": "string"
        }
      ],
      "stateMutability": "view",
      "type": "function"
    },
    {
      "inputs": [
        {
          "internalType": "uint256",
          "name": "tokenId",
          "type": "uint256"
        }
      ],
      "name": "tokenURI",
      "outputs": [
        {
          "internalType": "string",
          "name": "",
          "type": "string"
        }
      ],
      "stateMutability": "view",
      "type": "function"
    },
    {
      "inputs": [],
      "name": "totalSupply",
      "outputs": [
        {
          "internalType": "uint256",
          "name": "",
          "type": "uint256"
        }
      ],
      "stateMutability": "view",
      "type": "function"
    },
    {
      "inputs": [
        {
          "internalType": "address",
          "name": "from",
          "type": "address"
        },
        {
          "internalType": "address",
          "name": "to",
          "type": "address"
        },
        {
          "internalType": "uint256",
          "name": "tokenId",
          "type": "uint256"
        }
      ],
      "name": "transferFrom",
      "outputs": [],
      "stateMutability": "nonpayable",
      "type": "function"
    }
  ],
  "bytecode": "0x60806040526001600760006101000a81548160ff0219169083151502179055503480156200002c57600080fd5b506040518060400160405280600881526020017f506f6c79636974790000000000000000000000000000000000000000000000008152506040518060400160405280600581526020017f504f4c59430000000000000000000000000000000000000000000000000000008152508160009080519060200190620000b1929190620006ed565b508060019080519060200190620000ca929190620006ed565b50505033600760016101000a81548173ffffffffffffffffffffffffffffffffffffffff021916908373ffffffffffffffffffffffffffffffffffffffff1602179055506200011e6200012460201b60201c565b62000cc7565b600760019054906101000a900473ffffffffffffffffffffffffffffffffffffffff1673ffffffffffffffffffffffffffffffffffffffff163373ffffffffffffffffffffffffffffffffffffffff1614620001b7576040517f08c379a0000000000000000000000000000000000000000000000000000000008152600401620001ae90620007fe565b60405180910390fd5b6000620001c96200021160201b60201c565b905060005b601e8110156200020d57620001f7338284620001eb919062000859565b6200022f60201b60201c565b80806200020490620008b6565b915050620001ce565b5050565b60006200022a60066200025560201b62000da81760201c565b905090565b620002518282604051806020016040528060008152506200026360201b60201c565b5050565b600081600001549050919050565b620002758383620002d160201b60201c565b6200028a6000848484620004b760201b60201c565b620002cc576040517f08c379a0000000000000000000000000000000000000000000000000000000008152600401620002c3906200097a565b60405180910390fd5b505050565b600073ffffffffffffffffffffffffffffffffffffffff168273ffffffffffffffffffffffffffffffffffffffff16141562000344576040517f08c379a00000000000000000000000000000000000000000000000000000000081526004016200033b90620009ec565b60405180910390fd5b62000355816200066160201b60201c565b1562000398576040517f08c379a00000000000000000000000000000000000000000000000000000000081526004016200038f9062000a5e565b60405180910390fd5b620003ac60008383620006cd60201b60201c565b6001600360008473ffffffffffffffffffffffffffffffffffffffff1673ffffffffffffffffffffffffffffffffffffffff1681526020019081526020016000206000828254620003fe919062000859565b92505081905550816002600083815260200190815260200160002060006101000a81548173ffffffffffffffffffffffffffffffffffffffff021916908373ffffffffffffffffffffffffffffffffffffffff160217905550808273ffffffffffffffffffffffffffffffffffffffff16600073ffffffffffffffffffffffffffffffffffffffff167fddf252ad1be2c89b69c2b068fc378daa952ba7f163c4a11628f55a4df523b3ef60405160405180910390a45050565b6000620004e58473ffffffffffffffffffffffffffffffffffffffff16620006d260201b62000db61760201c565b1562000654578373ffffffffffffffffffffffffffffffffffffffff1663150b7a0262000517620006e560201b60201c565b8786866040518563ffffffff1660e01b81526004016200053b949392919062000b7a565b6020604051808303816000875af19250505080156200057a57506040513d601f19601f8201168201806040525081019062000577919062000c30565b60015b62000603573d8060008114620005ad576040519150601f19603f3d011682016040523d82523d6000602084013e620005b2565b606091505b50600081511415620005fb576040517f08c379a0000000000000000000000000000000000000000000000000000000008152600401620005f2906200097a565b60405180910390fd5b805181602001fd5b63150b7a0260e01b7bffffffffffffffffffffffffffffffffffffffffffffffffffffffff1916817bffffffffffffffffffffffffffffffffffffffffffffffffffffffff19161491505062000659565b600190505b949350505050565b60008073ffffffffffffffffffffffffffffffffffffffff166002600084815260200190815260200160002060009054906101000a900473ffffffffffffffffffffffffffffffffffffffff1673ffffffffffffffffffffffffffffffffffffffff1614159050919050565b505050565b600080823b905060008111915050919050565b600033905090565b828054620006fb9062000c91565b90600052602060002090601f0160209004810192826200071f57600085556200076b565b82601f106200073a57805160ff19168380011785556200076b565b828001600101855582156200076b579182015b828111156200076a5782518255916020019190600101906200074d565b5b5090506200077a91906200077e565b5090565b5b80821115620007995760008160009055506001016200077f565b5090565b600082825260208201905092915050565b7f4f6e6c79206f776e657200000000000000000000000000000000000000000000600082015250565b6000620007e6600a836200079d565b9150620007f382620007ae565b602082019050919050565b600060208201905081810360008301526200081981620007d7565b9050919050565b6000819050919050565b7f4e487b7100000000000000000000000000000000000000000000000000000000600052601160045260246000fd5b6000620008668262000820565b9150620008738362000820565b9250827fffffffffffffffffffffffffffffffffffffffffffffffffffffffffffffffff03821115620008ab57620008aa6200082a565b5b828201905092915050565b6000620008c38262000820565b91507fffffffffffffffffffffffffffffffffffffffffffffffffffffffffffffffff821415620008f957620008f86200082a565b5b600182019050919050565b7f4552433732313a207472616e7366657220746f206e6f6e20455243373231526560008201527f63656976657220696d706c656d656e7465720000000000000000000000000000602082015250565b6000620009626032836200079d565b91506200096f8262000904565b604082019050919050565b60006020820190508181036000830152620009958162000953565b9050919050565b7f4552433732313a206d696e7420746f20746865207a65726f2061646472657373600082015250565b6000620009d46020836200079d565b9150620009e1826200099c565b602082019050919050565b6000602082019050818103600083015262000a0781620009c5565b9050919050565b7f4552433732313a20746f6b656e20616c7265616479206d696e74656400000000600082015250565b600062000a46601c836200079d565b915062000a538262000a0e565b602082019050919050565b6000602082019050818103600083015262000a798162000a37565b9050919050565b600073ffffffffffffffffffffffffffffffffffffffff82169050919050565b600062000aad8262000a80565b9050919050565b62000abf8162000aa0565b82525050565b62000ad08162000820565b82525050565b600081519050919050565b600082825260208201905092915050565b60005b8381101562000b1257808201518184015260208101905062000af5565b8381111562000b22576000848401525b50505050565b6000601f19601f8301169050919050565b600062000b468262000ad6565b62000b52818562000ae1565b935062000b6481856020860162000af2565b62000b6f8162000b28565b840191505092915050565b600060808201905062000b91600083018762000ab4565b62000ba0602083018662000ab4565b62000baf604083018562000ac5565b818103606083015262000bc3818462000b39565b905095945050505050565b600080fd5b60007fffffffff0000000000000000000000000000000000000000000000000000000082169050919050565b62000c0a8162000bd3565b811462000c1657600080fd5b50565b60008151905062000c2a8162000bff565b92915050565b60006020828403121562000c495762000c4862000bce565b5b600062000c598482850162000c19565b91505092915050565b7f4e487b7100000000000000000000000000000000000000000000000000000000600052602260045260246000fd5b6000600282049050600182168062000caa57607f821691505b6020821081141562000cc15762000cc062000c62565b5b50919050565b612c488062000cd76000396000f3fe608060405234801561001057600080fd5b50600436106101375760003560e01c806395d89b41116100b8578063b88d4fde1161007c578063b88d4fde14610328578063c87b56dd14610344578063ce89205b14610374578063e985e9c514610392578063eb8d2444146103c2578063fc22c15c146103e057610137565b806395d89b41146102aa57806398d372de146102c8578063a0712d68146102d2578063a22cb465146102ee578063ae8fd9851461030a57610137565b806323b872dd116100ff57806323b872dd146101f457806342842e0e146102105780636352211e1461022c57806370a082311461025c5780638da5cb5b1461028c57610137565b806301ffc9a71461013c57806306fdde031461016c578063081812fc1461018a578063095ea7b3146101ba57806318160ddd146101d6575b600080fd5b61015660048036038101906101519190611a1b565b6103fe565b6040516101639190611a63565b60405180910390f35b6101746104e0565b6040516101819190611b17565b60405180910390f35b6101a4600480360381019061019f9190611b6f565b610572565b6040516101b19190611bdd565b60405180910390f35b6101d460048036038101906101cf9190611c24565b6105f7565b005b6101de61070f565b6040516101eb9190611c73565b60405180910390f35b61020e60048036038101906102099190611c8e565b610720565b005b61022a60048036038101906102259190611c8e565b610780565b005b61024660048036038101906102419190611b6f565b6107a0565b6040516102539190611bdd565b60405180910390f35b61027660048036038101906102719190611ce1565b610852565b6040516102839190611c73565b60405180910390f35b61029461090a565b6040516102a19190611bdd565b60405180910390f35b6102b2610930565b6040516102bf9190611b17565b60405180910390f35b6102d06109c2565b005b6102ec60048036038101906102e79190611b6f565b610a96565b005b61030860048036038101906103039190611d3a565b610bcb565b005b610312610be1565b60405161031f9190611c73565b60405180910390f35b610342600480360381019061033d9190611eaf565b610be6565b005b61035e60048036038101906103599190611b6f565b610c48565b60405161036b9190611b17565b60405180910390f35b61037c610cef565b6040516103899190611c73565b60405180910390f35b6103ac60048036038101906103a79190611f32565b610cf5565b6040516103b99190611a63565b60405180910390f35b6103ca610d89565b6040516103d79190611a63565b60405180910390f35b6103e8610d9c565b6040516103f59190611c73565b60405180910390f35b60007f80ac58cd000000000000000000000000000000000000000000000000000000007bffffffffffffffffffffffffffffffffffffffffffffffffffffffff1916827bffffffffffffffffffffffffffffffffffffffffffffffffffffffff191614806104c957507f5b5e139f000000000000000000000000000000000000000000000000000000007bffffffffffffffffffffffffffffffffffffffffffffffffffffffff1916827bffffffffffffffffffffffffffffffffffffffffffffffffffffffff1916145b806104d957506104d882610dc9565b5b9050919050565b6060600080546104ef90611fa1565b80601f016020809104026020016040519081016040528092919081815260200182805461051b90611fa1565b80156105685780601f1061053d57610100808354040283529160200191610568565b820191906000526020600020905b81548152906001019060200180831161054b57829003601f168201915b5050505050905090565b600061057d82610e33565b6105bc576040517f08c379a00000000000000000000000000000000000000000000000000000000081526004016105b390612045565b60405180910390fd5b6004600083815260200190815260200160002060009054906101000a900473ffffffffffffffffffffffffffffffffffffffff169050919050565b6000610602826107a0565b90508073ffffffffffffffffffffffffffffffffffffffff168373ffffffffffffffffffffffffffffffffffffffff161415610673576040517f08c379a000000000000000000000000000000000000000000000000000000000815260040161066a906120d7565b60405180910390fd5b8073ffffffffffffffffffffffffffffffffffffffff16610692610e9f565b73ffffffffffffffffffffffffffffffffffffffff1614806106c157506106c0816106bb610e9f565b610cf5565b5b610700576040517f08c379a00000000000000000000000000000000000000000000000000000000081526004016106f790612169565b60405180910390fd5b61070a8383610ea7565b505050565b600061071b6006610da8565b905090565b61073161072b610e9f565b82610f60565b610770576040517f08c379a0000000000000000000000000000000000000000000000000000000008152600401610767906121fb565b60405180910390fd5b61077b83838361103e565b505050565b61079b83838360405180602001604052806000815250610be6565b505050565b6000806002600084815260200190815260200160002060009054906101000a900473ffffffffffffffffffffffffffffffffffffffff169050600073ffffffffffffffffffffffffffffffffffffffff168173ffffffffffffffffffffffffffffffffffffffff161415610849576040517f08c379a00000000000000000000000000000000000000000000000000000000081526004016108409061228d565b60405180910390fd5b80915050919050565b60008073ffffffffffffffffffffffffffffffffffffffff168273ffffffffffffffffffffffffffffffffffffffff1614156108c3576040517f08c379a00000000000000000000000000000000000000000000000000000000081526004016108ba9061231f565b60405180910390fd5b600360008373ffffffffffffffffffffffffffffffffffffffff1673ffffffffffffffffffffffffffffffffffffffff168152602001908152602001600020549050919050565b600760019054906101000a900473ffffffffffffffffffffffffffffffffffffffff1681565b60606001805461093f90611fa1565b80601f016020809104026020016040519081016040528092919081815260200182805461096b90611fa1565b80156109b85780601f1061098d576101008083540402835291602001916109b8565b820191906000526020600020905b81548152906001019060200180831161099b57829003601f168201915b5050505050905090565b600760019054906101000a900473ffffffffffffffffffffffffffffffffffffffff1673ffffffffffffffffffffffffffffffffffffffff163373ffffffffffffffffffffffffffffffffffffffff1614610a52576040517f08c379a0000000000000000000000000000000000000000000000000000000008152600401610a499061238b565b60405180910390fd5b6000610a5c61070f565b905060005b601e811015610a9257610a7f338284610a7a91906123da565b61129a565b8080610a8a90612430565b915050610a61565b5050565b600760009054906101000a900460ff16610ae5576040517f08c379a0000000000000000000000000000000000000000000000000000000008152600401610adc906124c5565b60405180910390fd5b6006811115610b29576040517f08c379a0000000000000000000000000000000000000000000000000000000008152600401610b2090612531565b60405180910390fd5b612ee081610b3561070f565b610b3f91906123da565b1115610b80576040517f08c379a0000000000000000000000000000000000000000000000000000000008152600401610b779061259d565b60405180910390fd5b60005b81811015610bc7576000610b9561070f565b9050612ee0610ba261070f565b1015610bb357610bb2338261129a565b5b508080610bbf90612430565b915050610b83565b5050565b610bdd610bd6610e9f565b83836112b8565b5050565b600681565b610bf7610bf1610e9f565b83610f60565b610c36576040517f08c379a0000000000000000000000000000000000000000000000000000000008152600401610c2d906121fb565b60405180910390fd5b610c4284848484611425565b50505050565b6060610c5382610e33565b610c92576040517f08c379a0000000000000000000000000000000000000000000000000000000008152600401610c899061262f565b60405180910390fd5b6000610c9c611481565b90506000815111610cbc5760405180602001604052806000815250610ce7565b80610cc684611498565b604051602001610cd792919061268b565b6040516020818303038152906040525b915050919050565b612ee081565b6000600560008473ffffffffffffffffffffffffffffffffffffffff1673ffffffffffffffffffffffffffffffffffffffff16815260200190815260200160002060008373ffffffffffffffffffffffffffffffffffffffff1673ffffffffffffffffffffffffffffffffffffffff16815260200190815260200160002060009054906101000a900460ff16905092915050565b600760009054906101000a900460ff1681565b67011c37937e08000081565b600081600001549050919050565b600080823b905060008111915050919050565b60007f01ffc9a7000000000000000000000000000000000000000000000000000000007bffffffffffffffffffffffffffffffffffffffffffffffffffffffff1916827bffffffffffffffffffffffffffffffffffffffffffffffffffffffff1916149050919050565b60008073ffffffffffffffffffffffffffffffffffffffff166002600084815260200190815260200160002060009054906101000a900473ffffffffffffffffffffffffffffffffffffffff1673ffffffffffffffffffffffffffffffffffffffff1614159050919050565b600033905090565b816004600083815260200190815260200160002060006101000a81548173ffffffffffffffffffffffffffffffffffffffff021916908373ffffffffffffffffffffffffffffffffffffffff160217905550808273ffffffffffffffffffffffffffffffffffffffff16610f1a836107a0565b73ffffffffffffffffffffffffffffffffffffffff167f8c5be1e5ebec7d5bd14f71427d1e84f3dd0314c0f7b2291e5b200ac8c7c3b92560405160405180910390a45050565b6000610f6b82610e33565b610faa576040517f08c379a0000000000000000000000000000000000000000000000000000000008152600401610fa190612721565b60405180910390fd5b6000610fb5836107a0565b90508073ffffffffffffffffffffffffffffffffffffffff168473ffffffffffffffffffffffffffffffffffffffff16148061102457508373ffffffffffffffffffffffffffffffffffffffff1661100c84610572565b73ffffffffffffffffffffffffffffffffffffffff16145b8061103557506110348185610cf5565b5b91505092915050565b8273ffffffffffffffffffffffffffffffffffffffff1661105e826107a0565b73ffffffffffffffffffffffffffffffffffffffff16146110b4576040517f08c379a00000000000000000000000000000000000000000000000000000000081526004016110ab906127b3565b60405180910390fd5b600073ffffffffffffffffffffffffffffffffffffffff168273ffffffffffffffffffffffffffffffffffffffff161415611124576040517f08c379a000000000000000000000000000000000000000000000000000000000815260040161111b90612845565b60405180910390fd5b61112f8383836115f9565b61113a600082610ea7565b6001600360008573ffffffffffffffffffffffffffffffffffffffff1673ffffffffffffffffffffffffffffffffffffffff168152602001908152602001600020600082825461118a9190612865565b925050819055506001600360008473ffffffffffffffffffffffffffffffffffffffff1673ffffffffffffffffffffffffffffffffffffffff16815260200190815260200160002060008282546111e191906123da565b92505081905550816002600083815260200190815260200160002060006101000a81548173ffffffffffffffffffffffffffffffffffffffff021916908373ffffffffffffffffffffffffffffffffffffffff160217905550808273ffffffffffffffffffffffffffffffffffffffff168473ffffffffffffffffffffffffffffffffffffffff167fddf252ad1be2c89b69c2b068fc378daa952ba7f163c4a11628f55a4df523b3ef60405160405180910390a4505050565b6112b48282604051806020016040528060008152506115fe565b5050565b8173ffffffffffffffffffffffffffffffffffffffff168373ffffffffffffffffffffffffffffffffffffffff161415611327576040517f08c379a000000000000000000000000000000000000000000000000000000000815260040161131e906128e5565b60405180910390fd5b80600560008573ffffffffffffffffffffffffffffffffffffffff1673ffffffffffffffffffffffffffffffffffffffff16815260200190815260200160002060008473ffffffffffffffffffffffffffffffffffffffff1673ffffffffffffffffffffffffffffffffffffffff16815260200190815260200160002060006101000a81548160ff0219169083151502179055508173ffffffffffffffffffffffffffffffffffffffff168373ffffffffffffffffffffffffffffffffffffffff167f17307eab39ab6107e8899845ad3d59bd9653f200f220920489ca2b5937696c31836040516114189190611a63565b60405180910390a3505050565b61143084848461103e565b61143c84848484611659565b61147b576040517f08c379a000000000000000000000000000000000000000000000000000000000815260040161147290612977565b60405180910390fd5b50505050565b606060405180602001604052806000815250905090565b606060008214156114e0576040518060400160405280600181526020017f300000000000000000000000000000000000000000000000000000000000000081525090506115f4565b600082905060005b600082146115125780806114fb90612430565b915050600a8261150b91906129c6565b91506114e8565b60008167ffffffffffffffff81111561152e5761152d611d84565b5b6040519080825280601f01601f1916602001820160405280156115605781602001600182028036833780820191505090505b5090505b600085146115ed576001826115799190612865565b9150600a8561158891906129f7565b603061159491906123da565b60f81b8183815181106115aa576115a9612a28565b5b60200101907effffffffffffffffffffffffffffffffffffffffffffffffffffffffffffff1916908160001a905350600a856115e691906129c6565b9450611564565b8093505050505b919050565b505050565b61160883836117e1565b6116156000848484611659565b611654576040517f08c379a000000000000000000000000000000000000000000000000000000000815260040161164b90612977565b60405180910390fd5b505050565b600061167a8473ffffffffffffffffffffffffffffffffffffffff16610db6565b156117d4578373ffffffffffffffffffffffffffffffffffffffff1663150b7a026116a3610e9f565b8786866040518563ffffffff1660e01b81526004016116c59493929190612aac565b6020604051808303816000875af192505050801561170157506040513d601f19601f820116820180604052508101906116fe9190612b0d565b60015b611784573d8060008114611731576040519150601f19603f3d011682016040523d82523d6000602084013e611736565b606091505b5060008151141561177c576040517f08c379a000000000000000000000000000000000000000000000000000000000815260040161177390612977565b60405180910390fd5b805181602001fd5b63150b7a0260e01b7bffffffffffffffffffffffffffffffffffffffffffffffffffffffff1916817bffffffffffffffffffffffffffffffffffffffffffffffffffffffff1916149150506117d9565b600190505b949350505050565b600073ffffffffffffffffffffffffffffffffffffffff168273ffffffffffffffffffffffffffffffffffffffff161415611851576040517f08c379a000000000000000000000000000000000000000000000000000000000815260040161184890612b86565b60405180910390fd5b61185a81610e33565b1561189a576040517f08c379a000000000000000000000000000000000000000000000000000000000815260040161189190612bf2565b60405180910390fd5b6118a6600083836115f9565b6001600360008473ffffffffffffffffffffffffffffffffffffffff1673ffffffffffffffffffffffffffffffffffffffff16815260200190815260200160002060008282546118f691906123da565b92505081905550816002600083815260200190815260200160002060006101000a81548173ffffffffffffffffffffffffffffffffffffffff021916908373ffffffffffffffffffffffffffffffffffffffff160217905550808273ffffffffffffffffffffffffffffffffffffffff16600073ffffffffffffffffffffffffffffffffffffffff167fddf252ad1be2c89b69c2b068fc378daa952ba7f163c4a11628f55a4df523b3ef60405160405180910390a45050565b6000604051905090565b600080fd5b600080fd5b60007fffffffff0000000000000000000000000000000000000000000000000000000082169050919050565b6119f8816119c3565b8114611a0357600080fd5b50565b600081359050611a15816119ef565b92915050565b600060208284031215611a3157611a306119b9565b5b6000611a3f84828501611a06565b91505092915050565b60008115159050919050565b611a5d81611a48565b82525050565b6000602082019050611a786000830184611a54565b92915050565b600081519050919050565b600082825260208201905092915050565b60005b83811015611ab8578082015181840152602081019050611a9d565b83811115611ac7576000848401525b50505050565b6000601f19601f8301169050919050565b6000611ae982611a7e565b611af38185611a89565b9350611b03818560208601611a9a565b611b0c81611acd565b840191505092915050565b60006020820190508181036000830152611b318184611ade565b905092915050565b6000819050919050565b611b4c81611b39565b8114611b5757600080fd5b50565b600081359050611b6981611b43565b92915050565b600060208284031215611b8557611b846119b9565b5b6000611b9384828501611b5a565b91505092915050565b600073ffffffffffffffffffffffffffffffffffffffff82169050919050565b6000611bc782611b9c565b9050919050565b611bd781611bbc565b82525050565b6000602082019050611bf26000830184611bce565b92915050565b611c0181611bbc565b8114611c0c57600080fd5b50565b600081359050611c1e81611bf8565b92915050565b60008060408385031215611c3b57611c3a6119b9565b5b6000611c4985828601611c0f565b9250506020611c5a85828601611b5a565b9150509250929050565b611c6d81611b39565b82525050565b6000602082019050611c886000830184611c64565b92915050565b600080600060608486031215611ca757611ca66119b9565b5b6000611cb586828701611c0f565b9350506020611cc686828701611c0f565b9250506040611cd786828701611b5a565b9150509250925092565b600060208284031215611cf757611cf66119b9565b5b6000611d0584828501611c0f565b91505092915050565b611d1781611a48565b8114611d2257600080fd5b50565b600081359050611d3481611d0e565b92915050565b60008060408385031215611d5157611d506119b9565b5b6000611d5f85828601611c0f565b9250506020611d7085828601611d25565b9150509250929050565b600080fd5b600080fd5b7f4e487b7100000000000000000000000000000000000000000000000000000000600052604160045260246000fd5b611dbc82611acd565b810181811067ffffffffffffffff82111715611ddb57611dda611d84565b5b80604052505050565b6000611dee6119af565b9050611dfa8282611db3565b919050565b600067ffffffffffffffff821115611e1a57611e19611d84565b5b611e2382611acd565b9050602081019050919050565b82818337600083830152505050565b6000611e52611e4d84611dff565b611de4565b905082815260208101848484011115611e6e57611e6d611d7f565b5b611e79848285611e30565b509392505050565b600082601f830112611e9657611e95611d7a565b5b8135611ea6848260208601611e3f565b91505092915050565b60008060008060808587031215611ec957611ec86119b9565b5b6000611ed787828801611c0f565b9450506020611ee887828801611c0f565b9350506040611ef987828801611b5a565b925050606085013567ffffffffffffffff811115611f1a57611f196119be565b5b611f2687828801611e81565b91505092959194509250565b60008060408385031215611f4957611f486119b9565b5b6000611f5785828601611c0f565b9250506020611f6885828601611c0f565b9150509250929050565b7f4e487b7100000000000000000000000000000000000000000000000000000000600052602260045260246000fd5b60006002820490506001821680611fb957607f821691505b60208210811415611fcd57611fcc611f72565b5b50919050565b7f4552433732313a20617070726f76656420717565727920666f72206e6f6e657860008201527f697374656e7420746f6b656e0000000000000000000000000000000000000000602082015250565b600061202f602c83611a89565b915061203a82611fd3565b604082019050919050565b6000602082019050818103600083015261205e81612022565b9050919050565b7f4552433732313a20617070726f76616c20746f2063757272656e74206f776e6560008201527f7200000000000000000000000000000000000000000000000000000000000000602082015250565b60006120c1602183611a89565b91506120cc82612065565b604082019050919050565b600060208201905081810360008301526120f0816120b4565b9050919050565b7f4552433732313a20617070726f76652063616c6c6572206973206e6f74206f7760008201527f6e6572206e6f7220617070726f76656420666f7220616c6c0000000000000000602082015250565b6000612153603883611a89565b915061215e826120f7565b604082019050919050565b6000602082019050818103600083015261218281612146565b9050919050565b7f4552433732313a207472616e736665722063616c6c6572206973206e6f74206f60008201527f776e6572206e6f7220617070726f766564000000000000000000000000000000602082015250565b60006121e5603183611a89565b91506121f082612189565b604082019050919050565b60006020820190508181036000830152612214816121d8565b9050919050565b7f4552433732313a206f776e657220717565727920666f72206e6f6e657869737460008201527f656e7420746f6b656e0000000000000000000000000000000000000000000000602082015250565b6000612277602983611a89565b91506122828261221b565b604082019050919050565b600060208201905081810360008301526122a68161226a565b9050919050565b7f4552433732313a2062616c616e636520717565727920666f7220746865207a6560008201527f726f206164647265737300000000000000000000000000000000000000000000602082015250565b6000612309602a83611a89565b9150612314826122ad565b604082019050919050565b60006020820190508181036000830152612338816122fc565b9050919050565b7f4f6e6c79206f776e657200000000000000000000000000000000000000000000600082015250565b6000612375600a83611a89565b91506123808261233f565b602082019050919050565b600060208201905081810360008301526123a481612368565b9050919050565b7f4e487b7100000000000000000000000000000000000000000000000000000000600052601160045260246000fd5b60006123e582611b39565b91506123f083611b39565b9250827fffffffffffffffffffffffffffffffffffffffffffffffffffffffffffffffff03821115612425576124246123ab565b5b828201905092915050565b600061243b82611b39565b91507fffffffffffffffffffffffffffffffffffffffffffffffffffffffffffffffff82141561246e5761246d6123ab565b5b600182019050919050565b7f53616c65206d7573742062652061637469766500000000000000000000000000600082015250565b60006124af601383611a89565b91506124ba82612479565b602082019050919050565b600060208201905081810360008301526124de816124a2565b9050919050565b7f43616e206f6e6c79206d696e74203620617420612074696d6500000000000000600082015250565b600061251b601983611a89565b9150612526826124e5565b602082019050919050565b6000602082019050818103600083015261254a8161250e565b9050919050565b7f50757263686173652065786365656473206d617820737570706c790000000000600082015250565b6000612587601b83611a89565b915061259282612551565b602082019050919050565b600060208201905081810360008301526125b68161257a565b9050919050565b7f4552433732314d657461646174613a2055524920717565727920666f72206e6f60008201527f6e6578697374656e7420746f6b656e0000000000000000000000000000000000602082015250565b6000612619602f83611a89565b9150612624826125bd565b604082019050919050565b600060208201905081810360008301526126488161260c565b9050919050565b600081905092915050565b600061266582611a7e565b61266f818561264f565b935061267f818560208601611a9a565b80840191505092915050565b6000612697828561265a565b91506126a3828461265a565b91508190509392505050565b7f4552433732313a206f70657261746f7220717565727920666f72206e6f6e657860008201527f697374656e7420746f6b656e0000000000000000000000000000000000000000602082015250565b600061270b602c83611a89565b9150612716826126af565b604082019050919050565b6000602082019050818103600083015261273a816126fe565b9050919050565b7f4552433732313a207472616e73666572206f6620746f6b656e2074686174206960008201527f73206e6f74206f776e0000000000000000000000000000000000000000000000602082015250565b600061279d602983611a89565b91506127a882612741565b604082019050919050565b600060208201905081810360008301526127cc81612790565b9050919050565b7f4552433732313a207472616e7366657220746f20746865207a65726f2061646460008201527f7265737300000000000000000000000000000000000000000000000000000000602082015250565b600061282f602483611a89565b915061283a826127d3565b604082019050919050565b6000602082019050818103600083015261285e81612822565b9050919050565b600061287082611b39565b915061287b83611b39565b92508282101561288e5761288d6123ab565b5b828203905092915050565b7f4552433732313a20617070726f766520746f2063616c6c657200000000000000600082015250565b60006128cf601983611a89565b91506128da82612899565b602082019050919050565b600060208201905081810360008301526128fe816128c2565b9050919050565b7f4552433732313a207472616e7366657220746f206e6f6e20455243373231526560008201527f63656976657220696d706c656d656e7465720000000000000000000000000000602082015250565b6000612961603283611a89565b915061296c82612905565b604082019050919050565b6000602082019050818103600083015261299081612954565b9050919050565b7f4e487b7100000000000000000000000000000000000000000000000000000000600052601260045260246000fd5b60006129d182611b39565b91506129dc83611b39565b9250826129ec576129eb612997565b5b828204905092915050565b6000612a0282611b39565b9150612a0d83611b39565b925082612a1d57612a1c612997565b5b828206905092915050565b7f4e487b7100000000000000000000000000000000000000000000000000000000600052603260045260246000fd5b600081519050919050565b600082825260208201905092915050565b6000612a7e82612a57565b612a888185612a62565b9350612a98818560208601611a9a565b612aa181611acd565b840191505092915050565b6000608082019050612ac16000830187611bce565b612ace6020830186611bce565b612adb6040830185611c64565b8181036060830152612aed8184612a73565b905095945050505050565b600081519050612b07816119ef565b92915050565b600060208284031215612b2357612b226119b9565b5b6000612b3184828501612af8565b91505092915050565b7f4552433732313a206d696e7420746f20746865207a65726f2061646472657373600082015250565b6000612b70602083611a89565b9150612b7b82612b3a565b602082019050919050565b60006020820190508181036000830152612b9f81612b63565b9050919050565b7f4552433732313a20746f6b656e20616c7265616479206d696e74656400000000600082015250565b6000612bdc601c83611a89565b9150612be782612ba6565b602082019050919050565b60006020820190508181036000830152612c0b81612bcf565b905091905056fea2646970667358221220b5efc2a6249e93f728e5db054d5a6db4ba51fc98045e98b081fe5c95a84b7a2b64736f6c634300080a0033",
  "linkReferences": {},
  "deployedLinkReferences": {}
}